:020000040800F2
:100000008006002089010008910100089301000882
:100010009501000897010008990100080000000000
:100020000000000000000000000000009B0100082C
:100030009D010008000000009F010008A1010008C8
:10004000A3010008A3010008A3010008A301000800
:10005000A3010008A3010008A3010008A3010008F0
:10006000A3010008A3010008A3010008A3010008E0
:10007000A3010008A3010008A3010008A3010008D0
:10008000A3010008A3010008A3010008A3010008C0
:10009000A3010008A3010008A3010008A3010008B0
:1000A000A3010008A3010008A3010008A3010008A0
:1000B000A3010008A3010008A3010008A301000890
:1000C000A3010008A3010008A3010008A301000880
:1000D000A301000845020008A3010008A3010008CD
:1000E000A3010008A3010008A301000800F002F822
:1000F00000F03AF80AA090E8000C82448344AAF188
:100100000107DA4501D100F02FF8AFF2090EBAE885
:100110000F0013F0010F18BFFB1A43F0010318473B
:10012000F402000014030000103A24BF78C878C11C
:10013000FAD8520724BF30C830C144BF04680C60ED
:10014000704700000023002400250026103A28BF35
:1001500078C1FBD8520728BF30C148BF0B60704739
:100160001FB51FBD10B510BD00F031F81146FFF7E7
:10017000F7FF00F0F5F800F04FF803B4FFF7F2FFD7
:1001800003BC00F057F800000948804709480047C1
:10019000FEE7FEE7FEE7FEE7FEE7FEE7FEE7FEE737
:1001A000FEE7FEE704480549054A064B7047000094
:1001B00043020008ED0000088000002080060020B7
:1001C000800200208002002070477047704775460B
:1001D00000F02CF8AE4605006946534620F00700B3
:1001E000854618B020B5FFF7DDFFBDE820404FF091
:1001F00000064FF000074FF000084FF0000B21F011
:100200000701AC46ACE8C009ACE8C009ACE8C009DD
:10021000ACE8C0098D46704710B50446AFF30080C6
:100220002046BDE81040FFF7A8BF00000048704717
:100230002000002001491820ABBEFEE72600020086
:10024000704770471748008800F00500012828D043
:100250001448001D008814490870012013490870D3
:10026000134814490978405C0D2811D11248C06820
:1002700040F400501049C860002003E000210C4AFF
:100280001154401C0B28F9DB00200A49087008E0D3
:1002900005490A7807490878411C064B197004493A
:1002A0000A54704700380140060000200400002076
:1002B000120000200700002000100140184880694B
:1002C00044F205010843164988614FF496601549C8
:1002D00008601548008840F400501349088008461B
:1002E000008840F00C0008800846008840F020009C
:1002F00008800846008820F480500880081D008887
:1003000020F48040091D08800846008820F4005031
:10031000088040F241300449091F088070470000FE
:1003200000100240040801400C38014001490880D7
:10033000704700000438014000B50246002309E080
:10034000D05CFFF7F3FF002000E0401C0349884227
:10035000FBDB5B1CD05C0028F2D100BDA086010055
:100360002348806940F01000214988614FF4401013
:10037000204948601E48806940F008001C49886197
:100380001D481E49086020201D490860FFF796FFA0
:100390002CE01C480078012828D11B48007841280F
:1003A00019D119484078542815D1144808300068EC
:1003B00040F400501149083108600846006820F4F4
:1003C0008050086011A0FFF7B7FF00200E49104AC7
:1003D0001278885407E009480830006840F48050DB
:1003E000064908310860002006490870D1E700007E
:1003F000001002400010014000003330040C0140A6
:1004000004E100E004000020120000204F4B000037
:10041000070000203404000800000020080000004D
:10042000280100083C0400080800002078060000AD
:0C04300044010008000000000000000073
:040000050800018965
:00000001FF
